{
  "contractName": "Filetransfer",
  "abi": [
    {
      "inputs": [],
      "stateMutability": "nonpayable",
      "type": "constructor"
    },
    {
      "inputs": [
        {
          "internalType": "uint256",
          "name": "_id",
          "type": "uint256"
        }
      ],
      "name": "length",
      "outputs": [
        {
          "internalType": "uint256",
          "name": "",
          "type": "uint256"
        }
      ],
      "stateMutability": "view",
      "type": "function",
      "constant": true
    },
    {
      "inputs": [
        {
          "internalType": "string",
          "name": "_grpname",
          "type": "string"
        }
      ],
      "name": "createGroup",
      "outputs": [],
      "stateMutability": "nonpayable",
      "type": "function"
    },
    {
      "inputs": [
        {
          "internalType": "address",
          "name": "_address",
          "type": "address"
        }
      ],
      "name": "showgroupsbyaddress",
      "outputs": [
        {
          "components": [
            {
              "internalType": "address",
              "name": "admin",
              "type": "address"
            },
            {
              "internalType": "string",
              "name": "grpName",
              "type": "string"
            },
            {
              "internalType": "address[]",
              "name": "members",
              "type": "address[]"
            },
            {
              "internalType": "uint256",
              "name": "nooffiles",
              "type": "uint256"
            },
            {
              "internalType": "uint256",
              "name": "ID",
              "type": "uint256"
            }
          ],
          "internalType": "struct Filetransfer.Group[]",
          "name": "",
          "type": "tuple[]"
        }
      ],
      "stateMutability": "view",
      "type": "function",
      "constant": true
    },
    {
      "inputs": [],
      "name": "showgroup",
      "outputs": [
        {
          "components": [
            {
              "internalType": "address",
              "name": "admin",
              "type": "address"
            },
            {
              "internalType": "string",
              "name": "grpName",
              "type": "string"
            },
            {
              "internalType": "address[]",
              "name": "members",
              "type": "address[]"
            },
            {
              "internalType": "uint256",
              "name": "nooffiles",
              "type": "uint256"
            },
            {
              "internalType": "uint256",
              "name": "ID",
              "type": "uint256"
            }
          ],
          "internalType": "struct Filetransfer.Group[]",
          "name": "",
          "type": "tuple[]"
        }
      ],
      "stateMutability": "view",
      "type": "function",
      "constant": true
    },
    {
      "inputs": [
        {
          "internalType": "uint256",
          "name": "_id",
          "type": "uint256"
        },
        {
          "internalType": "address",
          "name": "_address",
          "type": "address"
        }
      ],
      "name": "addEmployee",
      "outputs": [],
      "stateMutability": "nonpayable",
      "type": "function"
    },
    {
      "inputs": [],
      "name": "showgroups",
      "outputs": [
        {
          "components": [
            {
              "internalType": "address",
              "name": "admin",
              "type": "address"
            },
            {
              "internalType": "string",
              "name": "grpName",
              "type": "string"
            },
            {
              "internalType": "address[]",
              "name": "members",
              "type": "address[]"
            },
            {
              "internalType": "uint256",
              "name": "nooffiles",
              "type": "uint256"
            },
            {
              "internalType": "uint256",
              "name": "ID",
              "type": "uint256"
            }
          ],
          "internalType": "struct Filetransfer.Group[]",
          "name": "",
          "type": "tuple[]"
        }
      ],
      "stateMutability": "view",
      "type": "function",
      "constant": true
    },
    {
      "inputs": [
        {
          "internalType": "uint256",
          "name": "_id",
          "type": "uint256"
        }
      ],
      "name": "showemployees",
      "outputs": [
        {
          "internalType": "address[]",
          "name": "",
          "type": "address[]"
        }
      ],
      "stateMutability": "view",
      "type": "function",
      "constant": true
    },
    {
      "inputs": [
        {
          "internalType": "uint256",
          "name": "_id",
          "type": "uint256"
        },
        {
          "internalType": "uint256",
          "name": "_id1",
          "type": "uint256"
        }
      ],
      "name": "showfiles",
      "outputs": [
        {
          "internalType": "string",
          "name": "",
          "type": "string"
        },
        {
          "internalType": "string",
          "name": "",
          "type": "string"
        }
      ],
      "stateMutability": "view",
      "type": "function",
      "constant": true
    },
    {
      "inputs": [
        {
          "internalType": "uint256",
          "name": "_id",
          "type": "uint256"
        }
      ],
      "name": "isMember",
      "outputs": [
        {
          "internalType": "bool",
          "name": "",
          "type": "bool"
        }
      ],
      "stateMutability": "view",
      "type": "function",
      "constant": true
    },
    {
      "inputs": [
        {
          "internalType": "uint256",
          "name": "_id",
          "type": "uint256"
        },
        {
          "internalType": "string",
          "name": "_filename",
          "type": "string"
        },
        {
          "internalType": "string",
          "name": "_CID",
          "type": "string"
        },
        {
          "internalType": "string",
          "name": "_secretkey",
          "type": "string"
        },
        {
          "internalType": "string",
          "name": "_initializationvec",
          "type": "string"
        }
      ],
      "name": "addfile",
      "outputs": [],
      "stateMutability": "nonpayable",
      "type": "function"
    },
    {
      "inputs": [
        {
          "internalType": "uint256",
          "name": "_id",
          "type": "uint256"
        },
        {
          "internalType": "uint256",
          "name": "_id1",
          "type": "uint256"
        }
      ],
      "name": "showfiles1",
      "outputs": [
        {
          "components": [
            {
              "internalType": "string",
              "name": "filename",
              "type": "string"
            },
            {
              "internalType": "string",
              "name": "CID",
              "type": "string"
            },
            {
              "internalType": "string",
              "name": "secretkey",
              "type": "string"
            },
            {
              "internalType": "string",
              "name": "iv",
              "type": "string"
            }
          ],
          "internalType": "struct Filetransfer.File",
          "name": "",
          "type": "tuple"
        }
      ],
      "stateMutability": "view",
      "type": "function",
      "constant": true
    }
  ],
  "bytecode": "0x6080604052600160005534801561001557600080fd5b5033600160006101000a81548173ffffffffffffffffffffffffffffffffffffffff021916908373ffffffffffffffffffffffffffffffffffffffff1602179055506128db806100666000396000f3fe608060405234801561001057600080fd5b50600436106100a95760003560e01c8063aa8b99d211610071578063aa8b99d214610164578063ad07e8bd14610194578063aff1ea80146101b2578063d50c7377146101e3578063dc2ddcae14610213578063edc3e6f91461022f576100a9565b806341d3a503146100ae5780635af82958146100ca57806385acb5f6146100e6578063978581e614610104578063a5dd604b14610134575b600080fd5b6100c860048036038101906100c3919061187a565b61025f565b005b6100e460048036038101906100df9190611a00565b6105e5565b005b6100ee610726565b6040516100fb9190611d76565b60405180910390f35b61011e60048036038101906101199190611d98565b61090f565b60405161012b9190611e34565b60405180910390f35b61014e60048036038101906101499190611e56565b6109c2565b60405161015b9190611d76565b60405180910390f35b61017e60048036038101906101799190611d98565b610bea565b60405161018b9190611e92565b60405180910390f35b61019c610c0a565b6040516101a99190611d76565b60405180910390f35b6101cc60048036038101906101c79190611ead565b610df3565b6040516101da929190611f37565b60405180910390f35b6101fd60048036038101906101f89190611d98565b610fcd565b60405161020a9190611f89565b60405180910390f35b61022d60048036038101906102289190611fa4565b6110c1565b005b61024960048036038101906102449190611ead565b6114a5565b6040516102569190612065565b60405180910390f35b3373ffffffffffffffffffffffffffffffffffffffff166005838154811061028a57610289612087565b5b906000526020600020906005020160000160009054906101000a900473ffffffffffffffffffffffffffffffffffffffff1673ffffffffffffffffffffffffffffffffffffffff1614610312576040517f08c379a000000000000000000000000000000000000000000000000000000000815260040161030990612128565b60405180910390fd5b60005b6005838154811061032957610328612087565b5b906000526020600020906005020160020180549050811015610427578173ffffffffffffffffffffffffffffffffffffffff16600584815481106103705761036f612087565b5b9060005260206000209060050201600201828154811061039357610392612087565b5b9060005260206000200160009054906101000a900473ffffffffffffffffffffffffffffffffffffffff1673ffffffffffffffffffffffffffffffffffffffff1603610414576040517f08c379a000000000000000000000000000000000000000000000000000000000815260040161040b90612194565b60405180910390fd5b808061041f906121e3565b915050610315565b506005828154811061043c5761043b612087565b5b9060005260206000209060050201600201819080600181540180825580915050600190039060005260206000200160009091909190916101000a81548173ffffffffffffffffffffffffffffffffffffffff021916908373ffffffffffffffffffffffffffffffffffffffff160217905550600460008273ffffffffffffffffffffffffffffffffffffffff1673ffffffffffffffffffffffffffffffffffffffff1681526020019081526020016000206005838154811061050157610500612087565b5b906000526020600020906005020190806001815401808255809150506001900390600052602060002090600502016000909190919091506000820160009054906101000a900473ffffffffffffffffffffffffffffffffffffffff168160000160006101000a81548173ffffffffffffffffffffffffffffffffffffffff021916908373ffffffffffffffffffffffffffffffffffffffff160217905550600182018160010190816105b3919061244d565b5060028201816002019080546105ca92919061173b565b50600382015481600301556004820154816004015550505050565b6105ee85610fcd565b61062d576040517f08c379a000000000000000000000000000000000000000000000000000000000815260040161062490612581565b60405180910390fd5b600360008681526020019081526020016000206040518060800160405280868152602001858152602001848152602001838152509080600181540180825580915050600190039060005260206000209060040201600090919091909150600082015181600001908161069f91906125a1565b5060208201518160010190816106b591906125a1565b5060408201518160020190816106cb91906125a1565b5060608201518160030190816106e191906125a1565b505050600585815481106106f8576106f7612087565b5b9060005260206000209060050201600301600081548092919061071a906121e3565b91905055505050505050565b60606005805480602002602001604051908101604052809291908181526020016000905b8282101561090657838290600052602060002090600502016040518060a00160405290816000820160009054906101000a900473ffffffffffffffffffffffffffffffffffffffff1673ffffffffffffffffffffffffffffffffffffffff1673ffffffffffffffffffffffffffffffffffffffff1681526020016001820180546107d39061225a565b80601f01602080910402602001604051908101604052809291908181526020018280546107ff9061225a565b801561084c5780601f106108215761010080835404028352916020019161084c565b820191906000526020600020905b81548152906001019060200180831161082f57829003601f168201915b50505050508152602001600282018054806020026020016040519081016040528092919081815260200182805480156108da57602002820191906000526020600020905b8160009054906101000a900473ffffffffffffffffffffffffffffffffffffffff1673ffffffffffffffffffffffffffffffffffffffff1681526020019060010190808311610890575b50505050508152602001600382015481526020016004820154815250508152602001906001019061074a565b50505050905090565b60606005828154811061092557610924612087565b5b90600052602060002090600502016002018054806020026020016040519081016040528092919081815260200182805480156109b657602002820191906000526020600020905b8160009054906101000a900473ffffffffffffffffffffffffffffffffffffffff1673ffffffffffffffffffffffffffffffffffffffff168152602001906001019080831161096c575b50505050509050919050565b6060600460008373ffffffffffffffffffffffffffffffffffffffff1673ffffffffffffffffffffffffffffffffffffffff168152602001908152602001600020805480602002602001604051908101604052809291908181526020016000905b82821015610bdf57838290600052602060002090600502016040518060a00160405290816000820160009054906101000a900473ffffffffffffffffffffffffffffffffffffffff1673ffffffffffffffffffffffffffffffffffffffff1673ffffffffffffffffffffffffffffffffffffffff168152602001600182018054610aac9061225a565b80601f0160208091040260200160405190810160405280929190818152602001828054610ad89061225a565b8015610b255780601f10610afa57610100808354040283529160200191610b25565b820191906000526020600020905b815481529060010190602001808311610b0857829003601f168201915b5050505050815260200160028201805480602002602001604051908101604052809291908181526020018280548015610bb357602002820191906000526020600020905b8160009054906101000a900473ffffffffffffffffffffffffffffffffffffffff1673ffffffffffffffffffffffffffffffffffffffff1681526020019060010190808311610b69575b505050505081526020016003820154815260200160048201548152505081526020019060010190610a23565b505050509050919050565b600060036000838152602001908152602001600020805490509050919050565b60606005805480602002602001604051908101604052809291908181526020016000905b82821015610dea57838290600052602060002090600502016040518060a00160405290816000820160009054906101000a900473ffffffffffffffffffffffffffffffffffffffff1673ffffffffffffffffffffffffffffffffffffffff1673ffffffffffffffffffffffffffffffffffffffff168152602001600182018054610cb79061225a565b80601f0160208091040260200160405190810160405280929190818152602001828054610ce39061225a565b8015610d305780601f10610d0557610100808354040283529160200191610d30565b820191906000526020600020905b815481529060010190602001808311610d1357829003601f168201915b5050505050815260200160028201805480602002602001604051908101604052809291908181526020018280548015610dbe57602002820191906000526020600020905b8160009054906101000a900473ffffffffffffffffffffffffffffffffffffffff1673ffffffffffffffffffffffffffffffffffffffff1681526020019060010190808311610d74575b505050505081526020016003820154815260200160048201548152505081526020019060010190610c2e565b50505050905090565b606080610dff84610fcd565b610e3e576040517f08c379a0000000000000000000000000000000000000000000000000000000008152600401610e35906126bf565b60405180910390fd5b600360008581526020019081526020016000208381548110610e6357610e62612087565b5b9060005260206000209060040201600001600360008681526020019081526020016000208481548110610e9957610e98612087565b5b9060005260206000209060040201600101818054610eb69061225a565b80601f0160208091040260200160405190810160405280929190818152602001828054610ee29061225a565b8015610f2f5780601f10610f0457610100808354040283529160200191610f2f565b820191906000526020600020905b815481529060010190602001808311610f1257829003601f168201915b50505050509150808054610f429061225a565b80601f0160208091040260200160405190810160405280929190818152602001828054610f6e9061225a565b8015610fbb5780601f10610f9057610100808354040283529160200191610fbb565b820191906000526020600020905b815481529060010190602001808311610f9e57829003601f168201915b50505050509050915091509250929050565b600080600090505b60058381548110610fe957610fe8612087565b5b9060005260206000209060050201600201805490508110156110b6573373ffffffffffffffffffffffffffffffffffffffff16600584815481106110305761102f612087565b5b9060005260206000209060050201600201828154811061105357611052612087565b5b9060005260206000200160009054906101000a900473ffffffffffffffffffffffffffffffffffffffff1673ffffffffffffffffffffffffffffffffffffffff16036110a35760019150506110bc565b80806110ae906121e3565b915050610fd5565b50600090505b919050565b6000815111611105576040517f08c379a00000000000000000000000000000000000000000000000000000000081526004016110fc9061272b565b60405180910390fd5b60005b6005805490508110156111aa5781805190602001206005828154811061113157611130612087565b5b906000526020600020906005020160010160405161114f91906127ee565b604051809103902003611197576040517f08c379a000000000000000000000000000000000000000000000000000000000815260040161118e90612851565b60405180910390fd5b80806111a2906121e3565b915050611108565b5060056001816001815401808255809150500390600052602060002090505033600560016000546111db9190612871565b815481106111ec576111eb612087565b5b906000526020600020906005020160000160006101000a81548173ffffffffffffffffffffffffffffffffffffffff021916908373ffffffffffffffffffffffffffffffffffffffff160217905550806005600160005461124d9190612871565b8154811061125e5761125d612087565b5b9060005260206000209060050201600101908161127b91906125a1565b50600054600560016000546112909190612871565b815481106112a1576112a0612087565b5b906000526020600020906005020160040181905550600560016000546112c79190612871565b815481106112d8576112d7612087565b5b9060005260206000209060050201600201339080600181540180825580915050600190039060005260206000200160009091909190916101000a81548173ffffffffffffffffffffffffffffffffffffffff021916908373ffffffffffffffffffffffffffffffffffffffff160217905550600460003373ffffffffffffffffffffffffffffffffffffffff1673ffffffffffffffffffffffffffffffffffffffff1681526020019081526020016000206005600160005461139a9190612871565b815481106113ab576113aa612087565b5b906000526020600020906005020190806001815401808255809150506001900390600052602060002090600502016000909190919091506000820160009054906101000a900473ffffffffffffffffffffffffffffffffffffffff168160000160006101000a81548173ffffffffffffffffffffffffffffffffffffffff021916908373ffffffffffffffffffffffffffffffffffffffff1602179055506001820181600101908161145d919061244d565b50600282018160020190805461147492919061173b565b506003820154816003015560048201548160040155505060008081548092919061149d906121e3565b919050555050565b6114ad61178d565b6003600084815260200190815260200160002082815481106114d2576114d1612087565b5b90600052602060002090600402016040518060800160405290816000820180546114fb9061225a565b80601f01602080910402602001604051908101604052809291908181526020018280546115279061225a565b80156115745780601f1061154957610100808354040283529160200191611574565b820191906000526020600020905b81548152906001019060200180831161155757829003601f168201915b5050505050815260200160018201805461158d9061225a565b80601f01602080910402602001604051908101604052809291908181526020018280546115b99061225a565b80156116065780601f106115db57610100808354040283529160200191611606565b820191906000526020600020905b8154815290600101906020018083116115e957829003601f168201915b5050505050815260200160028201805461161f9061225a565b80601f016020809104026020016040519081016040528092919081815260200182805461164b9061225a565b80156116985780601f1061166d57610100808354040283529160200191611698565b820191906000526020600020905b81548152906001019060200180831161167b57829003601f168201915b505050505081526020016003820180546116b19061225a565b80601f01602080910402602001604051908101604052809291908181526020018280546116dd9061225a565b801561172a5780601f106116ff5761010080835404028352916020019161172a565b820191906000526020600020905b81548152906001019060200180831161170d57829003601f168201915b505050505081525050905092915050565b82805482825590600052602060002090810192821561177c5760005260206000209182015b8281111561177b578254825591600101919060010190611760565b5b50905061178991906117b5565b5090565b6040518060800160405280606081526020016060815260200160608152602001606081525090565b5b808211156117ce5760008160009055506001016117b6565b5090565b6000604051905090565b600080fd5b600080fd5b6000819050919050565b6117f9816117e6565b811461180457600080fd5b50565b600081359050611816816117f0565b92915050565b600073ffffffffffffffffffffffffffffffffffffffff82169050919050565b60006118478261181c565b9050919050565b6118578161183c565b811461186257600080fd5b50565b6000813590506118748161184e565b92915050565b60008060408385031215611891576118906117dc565b5b600061189f85828601611807565b92505060206118b085828601611865565b9150509250929050565b600080fd5b600080fd5b6000601f19601f8301169050919050565b7f4e487b7100000000000000000000000000000000000000000000000000000000600052604160045260246000fd5b61190d826118c4565b810181811067ffffffffffffffff8211171561192c5761192b6118d5565b5b80604052505050565b600061193f6117d2565b905061194b8282611904565b919050565b600067ffffffffffffffff82111561196b5761196a6118d5565b5b611974826118c4565b9050602081019050919050565b82818337600083830152505050565b60006119a361199e84611950565b611935565b9050828152602081018484840111156119bf576119be6118bf565b5b6119ca848285611981565b509392505050565b600082601f8301126119e7576119e66118ba565b5b81356119f7848260208601611990565b91505092915050565b600080600080600060a08688031215611a1c57611a1b6117dc565b5b6000611a2a88828901611807565b955050602086013567ffffffffffffffff811115611a4b57611a4a6117e1565b5b611a57888289016119d2565b945050604086013567ffffffffffffffff811115611a7857611a776117e1565b5b611a84888289016119d2565b935050606086013567ffffffffffffffff811115611aa557611aa46117e1565b5b611ab1888289016119d2565b925050608086013567ffffffffffffffff811115611ad257611ad16117e1565b5b611ade888289016119d2565b9150509295509295909350565b600081519050919050565b600082825260208201905092915050565b6000819050602082019050919050565b611b208161183c565b82525050565b600081519050919050565b600082825260208201905092915050565b60005b83811015611b60578082015181840152602081019050611b45565b60008484015250505050565b6000611b7782611b26565b611b818185611b31565b9350611b91818560208601611b42565b611b9a816118c4565b840191505092915050565b600081519050919050565b600082825260208201905092915050565b6000819050602082019050919050565b6000611bdd8383611b17565b60208301905092915050565b6000602082019050919050565b6000611c0182611ba5565b611c0b8185611bb0565b9350611c1683611bc1565b8060005b83811015611c47578151611c2e8882611bd1565b9750611c3983611be9565b925050600181019050611c1a565b5085935050505092915050565b611c5d816117e6565b82525050565b600060a083016000830151611c7b6000860182611b17565b5060208301518482036020860152611c938282611b6c565b91505060408301518482036040860152611cad8282611bf6565b9150506060830151611cc26060860182611c54565b506080830151611cd56080860182611c54565b508091505092915050565b6000611cec8383611c63565b905092915050565b6000602082019050919050565b6000611d0c82611aeb565b611d168185611af6565b935083602082028501611d2885611b07565b8060005b85811015611d645784840389528151611d458582611ce0565b9450611d5083611cf4565b925060208a01995050600181019050611d2c565b50829750879550505050505092915050565b60006020820190508181036000830152611d908184611d01565b905092915050565b600060208284031215611dae57611dad6117dc565b5b6000611dbc84828501611807565b91505092915050565b600082825260208201905092915050565b6000611de182611ba5565b611deb8185611dc5565b9350611df683611bc1565b8060005b83811015611e27578151611e0e8882611bd1565b9750611e1983611be9565b925050600181019050611dfa565b5085935050505092915050565b60006020820190508181036000830152611e4e8184611dd6565b905092915050565b600060208284031215611e6c57611e6b6117dc565b5b6000611e7a84828501611865565b91505092915050565b611e8c816117e6565b82525050565b6000602082019050611ea76000830184611e83565b92915050565b60008060408385031215611ec457611ec36117dc565b5b6000611ed285828601611807565b9250506020611ee385828601611807565b9150509250929050565b600082825260208201905092915050565b6000611f0982611b26565b611f138185611eed565b9350611f23818560208601611b42565b611f2c816118c4565b840191505092915050565b60006040820190508181036000830152611f518185611efe565b90508181036020830152611f658184611efe565b90509392505050565b60008115159050919050565b611f8381611f6e565b82525050565b6000602082019050611f9e6000830184611f7a565b92915050565b600060208284031215611fba57611fb96117dc565b5b600082013567ffffffffffffffff811115611fd857611fd76117e1565b5b611fe4848285016119d2565b91505092915050565b6000608083016000830151848203600086015261200a8282611b6c565b915050602083015184820360208601526120248282611b6c565b9150506040830151848203604086015261203e8282611b6c565b915050606083015184820360608601526120588282611b6c565b9150508091505092915050565b6000602082019050818103600083015261207f8184611fed565b905092915050565b7f4e487b7100000000000000000000000000000000000000000000000000000000600052603260045260246000fd5b7f6f6e6c792061646d696e206f66207468652067726f75702063616e206163636560008201527f7373207468652066696c65000000000000000000000000000000000000000000602082015250565b6000612112602b83611eed565b915061211d826120b6565b604082019050919050565b6000602082019050818103600083015261214181612105565b9050919050565b7f616c7265616479206d656d626572000000000000000000000000000000000000600082015250565b600061217e600e83611eed565b915061218982612148565b602082019050919050565b600060208201905081810360008301526121ad81612171565b9050919050565b7f4e487b7100000000000000000000000000000000000000000000000000000000600052601160045260246000fd5b60006121ee826117e6565b91507fffffffffffffffffffffffffffffffffffffffffffffffffffffffffffffffff82036122205761221f6121b4565b5b600182019050919050565b7f4e487b7100000000000000000000000000000000000000000000000000000000600052602260045260246000fd5b6000600282049050600182168061227257607f821691505b6020821081036122855761228461222b565b5b50919050565b60008154905061229a8161225a565b9050919050565b60008190508160005260206000209050919050565b60006020601f8301049050919050565b600082821b905092915050565b6000600883026123037fffffffffffffffffffffffffffffffffffffffffffffffffffffffffffffffff826122c6565b61230d86836122c6565b95508019841693508086168417925050509392505050565b6000819050919050565b600061234a612345612340846117e6565b612325565b6117e6565b9050919050565b6000819050919050565b6123648361232f565b61237861237082612351565b8484546122d3565b825550505050565b600090565b61238d612380565b61239881848461235b565b505050565b5b818110156123bc576123b1600082612385565b60018101905061239e565b5050565b601f821115612401576123d2816122a1565b6123db846122b6565b810160208510156123ea578190505b6123fe6123f6856122b6565b83018261239d565b50505b505050565b600082821c905092915050565b600061242460001984600802612406565b1980831691505092915050565b600061243d8383612413565b9150826002028217905092915050565b81810361245b575050612533565b6124648261228b565b67ffffffffffffffff81111561247d5761247c6118d5565b5b612487825461225a565b6124928282856123c0565b6000601f8311600181146124c157600084156124af578287015490505b6124b98582612431565b86555061252c565b601f1984166124cf876122a1565b96506124da866122a1565b60005b82811015612502578489015482556001820191506001850194506020810190506124dd565b8683101561251f578489015461251b601f891682612413565b8355505b6001600288020188555050505b5050505050505b565b7f6f6e6c79206d656d626572732063616e206164642066696c6573000000000000600082015250565b600061256b601a83611eed565b915061257682612535565b602082019050919050565b6000602082019050818103600083015261259a8161255e565b9050919050565b6125aa82611b26565b67ffffffffffffffff8111156125c3576125c26118d5565b5b6125cd825461225a565b6125d88282856123c0565b600060209050601f83116001811461260b57600084156125f9578287015190505b6126038582612431565b86555061266b565b601f198416612619866122a1565b60005b828110156126415784890151825560018201915060208501945060208101905061261c565b8683101561265e578489015161265a601f891682612413565b8355505b6001600288020188555050505b505050505050565b7f6f6e6c79206d656d626572732063616e20616363657373207468652066696c65600082015250565b60006126a9602083611eed565b91506126b482612673565b602082019050919050565b600060208201905081810360008301526126d88161269c565b9050919050565b7f67726f7570206e616d6520726571756972656400000000000000000000000000600082015250565b6000612715601383611eed565b9150612720826126df565b602082019050919050565b6000602082019050818103600083015261274481612708565b9050919050565b600081905092915050565b60008190508160005260206000209050919050565b600081546127788161225a565b612782818661274b565b9450600182166000811461279d57600181146127b2576127e5565b60ff19831686528115158202860193506127e5565b6127bb85612756565b60005b838110156127dd578154818901526001820191506020810190506127be565b838801955050505b50505092915050565b60006127fa828461276b565b915081905092915050565b7f616c72656164792067726f757020657869737400000000000000000000000000600082015250565b600061283b601383611eed565b915061284682612805565b602082019050919050565b6000602082019050818103600083015261286a8161282e565b9050919050565b600061287c826117e6565b9150612887836117e6565b925082820390508181111561289f5761289e6121b4565b5b9291505056fea26469706673582212208afd2aec7fbbeae2b9efdd5849f832034c7acacdf6fa52401f96242633719e7964736f6c63430008130033",
  "immutableReferences": {},
  "source": "//SPDX-License-Identifier: UNLICENSED\npragma solidity >=0.8.0;\ncontract Filetransfer{\n    uint _ID=1;\n    address director;\n    address[] members;\n    struct Member{\n        string name;\n        address public_key;\n    }\n    struct File{\n        string filename;\n        string CID;\n        string secretkey;\n        string iv;\n    }\n    struct Group{\n        address admin;\n        string grpName;\n        address[] members;\n        uint nooffiles;\n        uint ID;\n    }\n    mapping(uint => File[]) filesingroup;\n    constructor(){\n        director = msg.sender;\n    }\n    function length(uint _id) view public returns(uint){\n        return filesingroup[_id].length;\n    }\n    mapping(address => Group[]) memberstogroup;\n    Group[] groups;\n    function createGroup(string memory _grpname) public{\n        require(bytes(_grpname).length>0,\"group name required\");\n        for(uint i=0;i<groups.length;i++){\n            if(keccak256(bytes(groups[i].grpName))==keccak256(bytes(_grpname))){ //change kafna hai\n                revert(\"already group exist\");\n            }\n        }\n        groups.push();\n        groups[_ID-1].admin=msg.sender;\n        groups[_ID-1].grpName=_grpname;\n        groups[_ID-1].ID=_ID;\n        groups[_ID-1].members.push(msg.sender);\n        memberstogroup[msg.sender].push(groups[_ID-1]);\n        _ID++;\n    }\n    function showgroupsbyaddress(address _address) public view returns(Group[] memory){\n        return memberstogroup[_address];\n    }\n    function showgroup() public view returns(Group[] memory){\n        return groups;\n    }\n    function addEmployee(uint _id, address _address) public{\n        require(groups[_id].admin==msg.sender,\"only admin of the group can access the file\");\n        for(uint i=0;i<groups[_id].members.length;i++){\n            if(groups[_id].members[i]==_address){\n                revert(\"already member\");\n            }\n        }\n        groups[_id].members.push(_address);\n        memberstogroup[_address].push(groups[_id]);\n    } //--->done\n\n    function showgroups() public view returns(Group[] memory){\n        return groups;\n    }\n    function showemployees(uint _id) public view returns(address[] memory){\n        return groups[_id].members;\n    }                    // members batayega \n    function showfiles(uint _id,uint _id1) public view returns(string memory,string memory){\n        require(isMember(_id),\"only members can access the file\");\n        return (filesingroup[_id][_id1].filename, filesingroup[_id][_id1].CID);\n    }\n    function isMember(uint _id) public view returns(bool){\n        for(uint i=0;i<groups[_id].members.length;i++){\n            if(groups[_id].members[i]==msg.sender){\n                return true;\n            }\n        }\n        return false;\n    }\n\n    function addfile(uint _id,string memory _filename,string memory _CID,string memory _secretkey,string memory _initializationvec) public{\n        require(isMember(_id),\"only members can add files\");\n        filesingroup[_id].push(File(_filename,_CID,_secretkey,_initializationvec));\n        groups[_id].nooffiles++;\n    }\n    function showfiles1(uint _id,uint _id1) public view returns(File memory){\n        return filesingroup[_id][_id1];\n    }\n}",
  "sourcePath": "/Users/kaustubhsharma/Desktop/PROGOTHON/contracts/FileShare.sol",
  "compiler": {
    "name": "solc",
    "version": "0.8.19+commit.7dd6d404.Emscripten.clang"
  },
  "schemaVersion": "3.4.15",
  "updatedAt": "2023-09-28T01:16:04.378Z",
  "networkType": "ethereum",
  "devdoc": {
    "kind": "dev",
    "methods": {},
    "version": 1
  },
  "userdoc": {
    "kind": "user",
    "methods": {},
    "version": 1
  }
}